:100000000C942A000C943F000C943F000C943F0089
:100010000C943F000C943F000C943F000C943F0064
:100020000C943F000C943F000C943F000C943F0054
:100030000C943F000C943F000C943F000C943F0044
:100040000C943F000C943F000C943F000C943F0034
:100050000C943F0011241FBECFE5D8E0DEBFCDBF1A
:1000600010E0A0E6B0E0E2E6F1E102C005900D92FA
:10007000AE3BB107D9F70E948A020C94AF080C94EA
:1000800000000F931F93CF93DF9300E010E031C087
:100090004C2F60E08CE690E00E9418042FEF80E780
:1000A00092E0215080409040E1F700C000000E94A3
:1000B0000104219702C0C9E0D0E0DD234CF7C0E085
:1000C000D0E012C04C2F60E08CE690E00E94180453
:1000D0002FEF80E792E0215080409040E1F700C090
:1000E00000000E9401042196CA30D1055CF30F5F25
:1000F0001F4F03301105FCF240E060E084E790E020
:100100000E94180440E061E08BE790E00E94180430
:10011000DF91CF911F910F9108950E94DD028F3FD3
:10012000E1F38C3041F466E081E00E940B0489E841
:1001300090E00E94F4030895CF93DF930E94A00201
:1001400064E080E00E940B040E94DD028F3FE1F337
:10015000880FC82FCC0FCC0FC80F2FEF82E597E088
:10016000215080409040E1F700C000000E94DD0275
:100170008F3FE1F3C80F2FEF82E597E021508040D9
:100180009040E1F700C00000DDECCD9FD12D11249F
:10019000D695D695D69580E38D0F0E94D203DD0FBC
:1001A0008D2F880F880FD80F8C2F8D1B805D0E949C
:1001B000D2030E948D008C2FDF91CF9108950E9471
:1001C000DD028F3FE1F38C3041F466E081E00E9474
:1001D0000B0483E990E00E94F40308953F924F924C
:1001E0005F926F927F928F929F92AF92BF92CF92C7
:1001F000DF92EF92FF920F931F93CF93DF93EC0167
:100200008B010E9463060E9475042FE789EA93E040
:10021000215080409040E1F700C0000065C141E0FE
:1002200064E082E40E94000582E00E94700680E0A3
:100230000E94700640E064E082E40E9400058FECBA
:1002400097E00197F1F700C000000E947406382E75
:10025000682F70E080E090E00E948B076B017C01CA
:10026000BE010D2E000C880B990B0E948D074B01CF
:100270005C019B01AC01C701B6010E94E506882321
:100280000CF04BC06AE080E00E940B048EE990E025
:100290000E94F4036EE080E00E940B048DEC389E17
:1002A000712C112476947694769480E3870D0E94C5
:1002B000D203770C872D880F880F780E832D87192E
:1002C000805D0E94D203A7019601C501B4010E947E
:1002D00078066B017C0120E030E048EC52E40E949B
:1002E000EA0620E030E040E251E40E9442082B019F
:1002F0003C0120E030E040EA50E4C701B6010E9432
:10030000E50688230CF0ADC066E081E00E940B0496
:1003100083EA90E00E94F403A4C0A5019401C70100
:10032000B6010E943D0888230CF49BC0A5019401EE
:10033000C701B6010E9478066B017C0120E030E025
:1003400040EA50E40E94E50618164CF16AE080E0AD
:100350000E940B048EE990E00E94F4036EE080E0BE
:100360000E940B048DEC389EB12C1124B694B694E7
:10037000B69480E38B0D0E94D203BB0C8B2D880FAB
:10038000880FB80E832D8B19805D0E94D20366E022
:1003900081E00E940B0483EA90E00E94F40320E0D5
:1003A00030E040E251E4C701B6010E943D08181652
:1003B00084F40E94010460E081E00E940B048EEA54
:1003C00090E00E94F40360E070E089E190E00E9418
:1003D000EE0020E030E040EA50E4C701B6010E94A0
:1003E0003D081816BCF520E030E040E251E4C701BA
:1003F000B6010E94E50688238CF56AE080E00E9441
:100400000B048EE990E00E94F4036EE080E00E940D
:100410000B048DEC389EF12C1124F694F694F6948E
:1004200080E38F0D0E94D203FF0C8F2D880F880F61
:10043000F80E832D8F19805D0E94D20366E081E063
:100440000E940B0489E890E00E94F403412C512C97
:10045000320107C0412C512C320103C0412C512CD8
:10046000320180E00E947B04BC01990F880B990B3C
:100470000E948D0720E030E040EA50E40E944208EC
:1004800020E030EC4FE754E40E94EA0620E030E040
:1004900048EC52E40E9442089B01AC010E9479069C
:1004A00020E030E040E251E40E94EA069B01AC010A
:1004B000C301B2010E94420820E030E040E251E472
:1004C0000E94EA0620E030E048EC52E40E94420834
:1004D0000E945C076CBF9FEF21EE84E091502040AA
:1004E0008040E1F700C000000115110509F097CE2A
:1004F000DF91CF911F910F91FF90EF90DF90CF9000
:10050000BF90AF909F908F907F906F905F904F9033
:100510003F9008950E946B060E945C040E947C0339
:100520000E94A0020E9441000E949C0061E070E0D5
:1005300090E00E94EE000E94DF0080E090E00895CD
:1005400041E060E084E40E94900441E061E084E4E2
:100550000E94900441E062E084E40E94900441E043
:1005600063E084E40E94900440E064E084E40E943C
:10057000900440E065E084E40E94900440E066E07E
:1005800084E40E94900440E067E084E40E949004C8
:1005900041E064E084E40E94CD0541E065E084E44C
:1005A0000E94CD0541E066E084E40E94CD0541E073
:1005B00067E084E40E94CD050895EF92FF920F93C7
:1005C0001F93CF93DF93CDB7DEB72C970FB6F89478
:1005D000DEBF0FBECDBF8CE0E0E6F0E0DE0111969D
:1005E00001900D928A95E1F7EE24EA94F12C3AC03D
:1005F00041E060E084E40E94000541E061E084E4C1
:100600000E94000541E062E084E40E94000541E0B0
:1006100063E084E40E94000540E06F2D84E40E94C2
:10062000000510E01AC064E0610F84E40E947005C8
:10063000082F811111C08F2D90E0FC01EE0FFF1FDC
:10064000E80FF91F81E090E08C0F9D1FE80FF91F64
:10065000E10FF11DE08003C01F5F133020F3002382
:1006600021F0F39493E09F1518F68E2D2C960FB67B
:10067000F894DEBF0FBECDBFDF91CF911F910F91D8
:10068000FF90EF90089541E060E082E40E94000551
:100690008FE99FE00197F1F700C0000040E060E0C3
:1006A00082E40E9400058FE99FE00197F1F700C006
:1006B00000000895CF93C82F682F62956F7081E472
:1006C0000E943D0640E061E082E40E9400050E9435
:1006D00043036C2F81E40E943D0640E061E082E428
:1006E0000E9400050E9443038FEC97E00197F1F709
:1006F00000C00000CF91089541E064E081E40E94D1
:10070000900441E065E081E40E94900441E066E0ED
:1007100081E40E94900441E067E081E40E9490043B
:1007200041E060E082E40E94900441E062E082E403
:100730000E94900441E061E082E40E94900440E065
:1007400062E082E40E94000582E00E945A038FE189
:100750009EE40197F1F700C0000088E20E945A036E
:100760008FEC97E00197F1F700C000008EE00E9447
:100770005A038FEC97E00197F1F700C0000081E089
:100780000E945A038FE19EE40197F1F700C0000038
:1007900086E00E945A038FEC97E00197F1F700C0C2
:1007A00000000895CF93C82F682F62956F7081E481
:1007B0000E943D0641E061E082E40E9400050E9443
:1007C00043036C2F81E40E943D0641E061E082E436
:1007D0000E9400050E9443038FEC97E00197F1F718
:1007E00000C00000CF910895CF93DF93EC0103C0C8
:1007F0000E94D203219688818111FACFDF91CF9197
:10080000089581E00E945A038FE19EE40197F1F779
:1008100000C000000895823050F4603140F490E44C
:10082000899F600D1124862F80680E945A030895C5
:10083000EF92FF920F931F93CF93DF938C01D62FEC
:10084000F42E642F8D2F0E940B04E12CC0E01BC0FE
:100850002031310524F40E94D203CF5F14C020312F
:10086000310541F4E11006C060E081E00E940B0414
:10087000E39409C02032310534F491E0E91203C059
:100880000E94D203CF5FF801EC0FF11D8081882315
:1008900061F02F2D30E02C0F311D90E1D99F200DFC
:1008A000311D1124203231059CF2DF91CF911F912F
:1008B0000F91FF90EF90089541E064E082E40E9480
:1008C000000580E890E00E94700684E090E00E94BD
:1008D000700640E064E082E40E9400058FE295E744
:1008E0000197F1F700C0000008951ABA87E886B9A9
:1008F00080E487B9089597B18F70982B97B986B126
:10090000806486B9349BFECF82E08A95F1F700C0FF
:1009100024B185B190E0982F8827820F911D08950A
:10092000823419F118F4813439F008958334B1F127
:10093000843409F44CC00895413059F42AB381E05D
:1009400090E002C0880F991F6A95E2F7822B8ABB5C
:1009500008952AB381E090E002C0880F991F6A953C
:10096000E2F7809582238ABB0895413059F427B37A
:1009700081E090E002C0880F991F6A95E2F7822B10
:1009800087BB089527B381E090E002C0880F991FCC
:100990006A95E2F78095822387BB0895413059F428
:1009A00024B381E090E002C0880F991F6A95E2F7B6
:1009B000822B84BB089524B381E090E002C0880FAD
:1009C000991F6A95E2F78095822384BB0895413090
:1009D00059F421B381E090E002C0880F991F6A9515
:1009E000E2F7822B81BB089521B381E090E002C041
:1009F000880F991F6A95E2F78095822381BB08953D
:100A0000823419F118F4813439F008958334B1F146
:100A1000843409F44CC00895413059F42BB381E07B
:100A200090E002C0880F991F6A95E2F7822B8BBB7A
:100A300008952BB381E090E002C0880F991F6A955A
:100A4000E2F7809582238BBB0895413059F428B397
:100A500081E090E002C0880F991F6A95E2F7822B2F
:100A600088BB089528B381E090E002C0880F991FE9
:100A70006A95E2F78095822388BB0895413059F446
:100A800025B381E090E002C0880F991F6A95E2F7D4
:100A9000822B85BB089525B381E090E002C0880FCA
:100AA000991F6A95E2F78095822385BB08954130AE
:100AB00059F422B381E090E002C0880F991F6A9533
:100AC000E2F7822B82BB089522B381E090E002C05E
:100AD000880F991F6A95E2F78095822382BB08955B
:100AE0008234E9F018F4813431F055C0833459F17F
:100AF0008434E9F150C049B381E090E09C01062EB6
:100B000002C0220F331F0A94E2F7842F90E0822361
:100B1000932302C0959587956A95E2F7089546B3A9
:100B200081E090E09C01062E02C0220F331F0A9440
:100B3000E2F7842F90E08223932302C09595879556
:100B40006A95E2F7089543B381E090E09C01062E98
:100B500002C0220F331F0A94E2F7842F90E0822311
:100B6000932302C0959587956A95E2F7089540B35F
:100B700081E090E09C01062E02C0220F331F0A94F0
:100B8000E2F7842F90E08223932302C09595879506
:100B90006A95E2F7089580E00895823419F118F417
:100BA000813439F008958334B1F1843409F44CC0B0
:100BB0000895413059F42BB381E090E002C0880FD2
:100BC000991F6A95E2F7822B8BBB08952BB381E0C6
:100BD00090E002C0880F991F6A95E2F78095822302
:100BE0008BBB0895413059F428B381E090E002C0F6
:100BF000880F991F6A95E2F7822B88BB089528B366
:100C000081E090E002C0880F991F6A95E2F7809515
:100C1000822388BB0895413059F425B381E090E0E8
:100C200002C0880F991F6A95E2F7822B85BB089551
:100C300025B381E090E002C0880F991F6A95E2F722
:100C40008095822385BB0895413059F422B381E019
:100C500090E002C0880F991F6A95E2F7822B82BB51
:100C6000089522B381E090E002C0880F991F6A9531
:100C7000E2F78095822382BB08956295607F82347B
:100C800079F018F4813431F00895833479F08434A4
:100C900099F008958BB38F708BBB8BB3862B8BBB76
:100CA00088B38F7088BB88B3862B88BB85B38F7061
:100CB00085BB85B3862B85BB82B38F7082BB82B325
:100CC000682B62BB089589E683BF41E063E082E45C
:100CD0000E949004089580EB87BB87E58DB9089545
:100CE0008FB9779BFECF0895779BFECF8FB1089584
:100CF0005058BB27AA270E9490060C9403080E9414
:100D0000F50738F00E94FC0720F039F49F3F19F4F2
:100D100026F40C94F2070EF4E095E7FB0C94EC0734
:100D2000E92F0E94140858F3BA1762077307840763
:100D3000950720F079F4A6F50C9436080EF4E095AA
:100D40000B2EBA2FA02D0B01B90190010C01CA0185
:100D5000A0011124FF27591B99F0593F50F4503E30
:100D600068F11A16F040A22F232F342F4427585F22
:100D7000F3CF469537952795A795F0405395C9F73A
:100D80007EF41F16BA0B620B730B840BBAF09150F2
:100D9000A1F0FF0FBB1F661F771F881FC2F70EC091
:100DA000BA0F621F731F841F48F487957795679564
:100DB000B795F7959E3F08F0B0CF9395880F08F050
:100DC0009927EE0F9795879508950E94C80708F414
:100DD00081E008950E94FE060C9403080E94FC071F
:100DE00058F00E94F50740F029F45F3F29F00C9479
:100DF000EC0751110C9437080C94F2070E94140868
:100E000068F39923B1F3552391F3951B550BBB2739
:100E1000AA2762177307840738F09F5F5F4F220F7E
:100E2000331F441FAA1FA9F335D00E2E3AF0E0E875
:100E300032D091505040E695001CCAF72BD0FE2FBF
:100E400029D0660F771F881FBB1F26173707480753
:100E5000AB07B0E809F0BB0B802DBF01FF2793580B
:100E60005F4F3AF09E3F510578F00C94EC070C94DC
:100E700037085F3FE4F3983ED4F3869577956795FE
:100E8000B795F7959F5FC9F7880F911D9695879540
:100E900097F90895E1E0660F771F881FBB1F62175F
:100EA00073078407BA0720F0621B730B840BBA0B1D
:100EB000EE1F88F7E09508950E941C0888F09F5760
:100EC00098F0B92F9927B751B0F0E1F0660F771F6E
:100ED000881F991F1AF0BA95C9F714C0B13091F064
:100EE0000E943608B1E008950C943608672F782FD9
:100EF0008827B85F39F0B93FCCF386957795679529
:100F0000B395D9F73EF490958095709561957F4F94
:100F10008F4F9F4F0895E89409C097FB3EF490953A
:100F20008095709561957F4F8F4F9F4F9923A9F0C2
:100F3000F92F96E9BB279395F69587957795679551
:100F4000B795F111F8CFFAF4BB0F11F460FF1BC095
:100F50006F5F7F4F8F4F9F4F16C0882311F096E928
:100F600011C0772321F09EE8872F762F05C06623D6
:100F700071F096E8862F70E060E02AF09A95660F8F
:100F8000771F881FDAF7880F9695879597F9089548
:100F9000990F0008550FAA0BE0E8FEEF161617068A
:100FA000E807F907C0F012161306E407F50798F0F2
:100FB000621B730B840B950B39F40A2661F0232B0B
:100FC000242B252B21F408950A2609F4A140A69587
:100FD0008FEF811D811D089597F99F6780E870E06C
:100FE00060E008959FEF80EC089500240A9416169F
:100FF000170618060906089500240A941216130607
:10100000140605060895092E0394000C11F4882394
:1010100052F0BB0F40F4BF2B11F460FF04C06F5FB0
:101020007F4F8F4F9F4F089557FD9058440F551F86
:1010300059F05F3F71F04795880F97FB991F61F05A
:101040009F3F79F087950895121613061406551FD1
:10105000F2CF4695F1DF08C0161617061806991F3D
:10106000F1CF86957105610508940895E894BB2732
:1010700066277727CB0197F908950E94C80708F4DF
:101080008FEF08950E9455080C9403080E94F507FD
:1010900038F00E94FC0720F0952311F00C94EC0727
:1010A0000C94F20711240C9437080E94140870F372
:1010B000959FC1F3950F50E0551F629FF001729FFD
:1010C000BB27F00DB11D639FAA27F00DB11DAA1F0C
:1010D000649F6627B00DA11D661F829F2227B00D59
:1010E000A11D621F739FB00DA11D621F839FA00DE4
:1010F000611D221F749F3327A00D611D231F849F34
:10110000600D211D822F762F6A2F11249F5750408A
:101110009AF0F1F088234AF0EE0FFF1FBB1F661F05
:10112000771F881F91505040A9F79E3F510580F0CE
:101130000C94EC070C9437085F3FE4F3983ED4F32B
:10114000869577956795B795F795E7959F5FC1F772
:10115000FE2B880F911D9695879597F90895F89421
:02116000FFCFBF
:101162000102030405060708090B000C57454C430E
:101172004F4D45005345543A32350053544154457E
:101182003A5354414E444259004F504552415449FA
:101192004F4E0020205354414E44425920004352A6
:1011A200543A0020204E6F726D616C20200053541F
:0E11B200415445203A206572726F7220200071
:00000001FF
